:020000040800F2
:1000000000050020853A0008AD360008AF3600082C
:10001000B1360008B3360008B5360008000000000D
:10002000000000000000000000000000B7360008DB
:10003000B936000800000000BB360008A5360008ED
:10004000DD3A0008E13A0008E53A0008E93A00081C
:10005000ED3A0008F13A0008F53A0008F93A0008CC
:10006000FD3A0008013B0008053B0008093B000879
:100070000D3B0008113B0008153B0008193B000828
:100080001D3B0008213B0008253B00080000000044
:10009000000000000000000000000000293B0008F4
:1000A0002D3B0008313B0008353B0008393B000878
:1000B000293600085B3600083D3B0008413B00083C
:1000C000453B0008493B00084D3B0008513B0008F8
:1000D000553B0008593B00082D3500085D3B0008E2
:1000E000613B0008653B0008693B00086D3B000868
:1000F000713B0008753B0008000000000000000094
:100100000000000000000000793B00087D3B000873
:10011000AB350008813B0008853B0008893B00089F
:100120008D3B0008913B0008953B0008993B000877
:100130009D3B00082DE9F04FA1B0824601AE0020A2
:1001400017461D467160B0620DF144090AE017F8C8
:10015000011B7068D0470028706000F0B982B06A57
:10016000401CB0623878010001D1B06AB2E22528A3
:10017000EDD1002030617061B061F0613062706279
:1001800001E040F0010017F8011F2029F9D02329D0
:100190000DD02B2904D02D2906D030290AD00CE00F
:1001A00040F0020080B2EEE740F00400FAE740F0D1
:1001B0000800F7E740F01000F4E72A290ED129687B
:1001C000296051F8042B2960002A326304D551427A
:1001D00040F00400316380B27F1C13E000213163E2
:1001E0000BE0316B6FF00043994205D001EB8103C6
:1001F00002EB4301303931637F1C3A78A2F13001C0
:100200000A29EED339782E2903D04FF0FF31F1625D
:100210001FE017F8011F2A2907D1296829607F1CD0
:1002200051F8042B2960F26213E00021F1620BE027
:10023000F16A6FF00043994205D001EB810302EBB4
:1002400043013039F1627F1C3A78A2F130010A296A
:10025000EED3B0860FF68040397800F057FE08B133
:1002600017F8010B8DF83A009DF83A00682802BF94
:1002700039786829622005D06C2804BF38786C284A
:1002800003D171208DF83A007F1C11A8F06017F897
:10029000014BB4F125002AD01C3800F0CA80001FA1
:1002A000022840F2C680133800F0EA80093800F0D6
:1002B000C080801E00F05481401E00F02B81401E43
:1002C000022840F2B680001F00F02481401F00F099
:1002D0008180401E00F0D480401E26D0C01E0BD06E
:1002E000801E00F0CD80C01E00F0CA8042E12520B3
:1002F0008DF84400012046E12868286050F8048BFE
:100300002860C6F80880F46A002C04D5404600F046
:100310000DFE044607E022460021404600F022FE82
:1003200008B1A0EB080474612EE12968296000225D
:1003300051F8040B29604FF03C0E0021CDE900017B
:1003400011A8B060DDE900019142F46808BF904255
:1003500001D1F26AC2B100F00F033033DBB23A2BA5
:10036000A8BF2733AEF101020009A354964640EA24
:10037000017009090022914208BF904204D0B2687E
:1003800004EB0E039A42E6D304EB0E01B160CEF10A
:100390003C00F16A7061884207DA081AF0614FF692
:1003A000EF71B08E0840B086EEE0002940F1EC809D
:1003B00096F8341001F01401102940F0E580316BFB
:1003C0003269891AF269891A081A0128C0F2DC8098
:1003D000F061D9E09DF83A0062281AD0682806D06A
:1003E0006A280CD06C281CD0712808D019E0286825
:1003F000286050F8041B2860B06A0880C4E02868B0
:10040000286050F8042B2860B06AC117C2E90001C7
:10041000BAE02868286050F8041B2860B06A0870A9
:10042000B2E02868286050F8041B2860B06A0860B1
:10043000AAE02868C01D20F007022A60D2E9000166
:1004400008322A60CDE90001002902D530692D214A
:1004500009E0B08E810702D530692B2103E0C00787
:1004600005D53069202109F80010401C306111A821
:1004700031690844B0602146684600F0EBF983E03A
:100480009DF83A006C280DD0712818BF6A2809D150
:100490002868C01D20F007022A60D2E90001083256
:1004A0002A6005E02968296051F8040B29600021C1
:1004B000CDE900019DF83A00682803D1DDE900018B
:1004C00080B20BE0622803D1DDE90001C0B205E093
:1004D000742818BF7A2804D1DDE900010021CDE994
:1004E000000196F83400000731D5DDE90023002033
:1004F000834208BF82422AD044F02000782826D1C7
:100500003069302109F80010401C411C316109F8A4
:1005100000401CE09DF83A00294600F0DEF8CDE9E5
:100520000001DDE9002300218B4202DA30692D2130
:1005300009E0B08E810702D530692B2103E0C007A6
:1005400005D53069202109F80010401C306111A840
:1005500031690844B0602146684600F0F5F813E0C0
:10056000012030612868286050F8041B28608DF84D
:10057000441009E025208DF84400012030611CB1B1
:1005800089F8014002203061306B3169401AF1690D
:10059000401A7169401A316A401AB169401A716A89
:1005A000A0EB010896F83400400711D42020B8F1E0
:1005B000010F8DF840000BDB4446012310AA694669
:1005C000504600F071FC002840F08280641EF4D197
:1005D000D6F810B0BBF1000F11AC0CD014F8011B11
:1005E0007068D0470028706072D0B06A401CBBF1C0
:1005F000010BB062F2D130208DF84000F469012C7B
:1006000009DB012310AA6946504600F04DFC002882
:100610005ED1641EF5D1D6F814B0B468BBF1000FFA
:100620000CD014F8011B7068D047002870604FD0C0
:10063000B06A401CBBF1010BB062F2D130208DF8E2
:100640004000346A012C09DB012310AA6946504698
:1006500000F02AFC00283BD1641EF5D1B068716916
:10066000D6F818B04418BBF1000F0BD014F8011BDA
:100670007068D047706058B3B06A401CBBF1010B82
:10068000B062F3D130208DF84000746A012C08DB91
:10069000012310AA6946504600F006FCC0B9641E4A
:1006A000F6D196F8340040077FF55CAD2020B8F114
:1006B000010F8DF84000FFF655AD012310AA6946E1
:1006C000504600F0F1FB18B9B8F10108F5D149E541
:1006D0004FF0FF3021B0BDE8F08F622826D06828A7
:1006E0001DD06A2808D06C2827D0712804D074281F
:1006F00023D07A280CD020E00868C01D20F0070025
:100700000860D0E900230830086019461046704799
:100710000A680A6052F8040B0A60002170470A68F0
:100720000A6052F8040B0A6000B20BE00A680A6023
:1007300052F8040B0A6040B204E00A680A6052F8FA
:10074000040B0A60C11770472DE9F34305460846BC
:100750002F696F2808BF082405D041F020017829AF
:1007600014BF0A2410243C26D5E90023642818BFAE
:1007700069289046994606D100218B4203DAD8F1C8
:10078000000869EB49090020814508BF80450CD16C
:10079000286B50B9082C38D195F83800000734D5AB
:1007A00030203B2687F83B002FE0701E0090064665
:1007B000404649462246E31700F000FC02F13000B3
:1007C000C0B23A2803DB9DF8041051390818B85517
:1007D000494640462246E31700F0F0FB8046894632
:1007E0000020814508BF804503D0E868B9198842D8
:1007F000DBD3082C09D195F83800000705D5B85D82
:10080000302802D0761E3020B855B919E960C6F1FB
:100810003C00296BA861884208DA081A28624FF662
:10082000EF71288F08402887BDE8F38300290ED593
:1008300095F8381001F01401102908D1696B6A6924
:10084000891A2A6A891A0E1A012EA8BF2E62BDE8DB
:10085000F38300002DE9F24F04468EB0D4E9000185
:10086000CDE9020104AF9DF8380040F0200BBBF148
:10087000610F0AD0206B002848BF062004D408BFAF
:10088000BBF1670F01D1012020636168C1F30A50F9
:1008900040F2FF7290421CD1080304BF2068002878
:1008A00009D10320A0619DF8380061381A2835D39A
:1008B0000FF2386108E00320A0619DF8380061382C
:1008C0001A2828D30FF21C61E068032200F0EEFB27
:1008D000BDE1012815DA204600F023FC012810DBD9
:1008E00000250020BBF1610F1FD1E16830220A70A2
:1008F0008A1CE2609DF83820612A0CBF78225822B9
:100900000FE0626840F2FE3161F31E52451A6260E8
:100910004FF0FF30E6E70FF2C851D5E70FF2C851AC
:10092000D2E74A706169891C616110B9002600250F
:1009300084E1BBF1610F40F09880206BD4E900ABFB
:1009400000284CBF2126461CDDE9020100220023BD
:1009500000F00AFC36B23ABF8BF00040CDE902A0AD
:10096000CDE902AB06F101082D1FB8F1010F8DF89A
:1009700010200DF1110736DBDDE902010022002312
:1009800000F00AFC2FD21C2102A800F01DFCDDE9BA
:10099000020100F09FFCA8F10708B8F1010F8146A1
:1009A00009DB00F0C3FC02460B46DDE9020100F062
:1009B000D5FCCDE90201F81D072105E009F00F0281
:1009C00000F8012D4FEA2919B9F1010F01DB491E89
:1009D000F4D5491E5CBF002200F8012DF9D5C71DD2
:1009E000B8F1010FC8DA0DF11100391AB142B8BFE0
:1009F0000E4636B230000DF111072FD4884206DAC8
:100A000004A9014449780829A8BF0F2100DA002170
:100A100004AA024400E0761E12F80139401E8B42FF
:100A2000F9D00F2904D104A901444A78521C4A7014
:100A3000002802D504AF761C2D1D36B2701E0DD4D1
:100A400039180A783032D2B23A2A03DB9DF83830AE
:100A50003A3B9A18401E01F80129F2D5206B002874
:100A600040F1EC80701E2063E8E0DDE90201002225
:100A7000002300F079FB3CBF81F00041CDE9020189
:100A80002DB247F2975068434B49DFF8309190FB05
:100A9000F1F52DB2C5F1070ABAF1010F90461CDB42
:100AA000DDE902675FEACA7007D542464B46304629
:100AB000394600F013FD06460F4640464946424679
:100AC0004B464FEA6A0A00F009FDBAF1000F804672
:100AD0008946E7D1CDE9026724E0CAF1000A002681
:100AE000374F14E05FEACA7007D542464B4630469E
:100AF000394600F0F3FC06460F464046494642465A
:100B00004B4600F0EBFC4FEA6A0A80468946BAF190
:100B1000000FE7D1DDE9020132463B4600F0B0FDAF
:100B2000CDE90201BBF1660F216BDFF898900CBF95
:100B300005F10A0006204618142EA8BF13263020FF
:100B40008DF810000DF11107012E3DDBDDE90201EA
:100B500000F0D6FB07F1080104220A23B0FBF3F3EF
:100B600003EB8307A0EB4700303001F8010C0A20AB
:100B7000B3FBF0F000EB8007A3EB47033033521ECA
:100B800001F8023DE9D1083E012E01F10807DBDB47
:100B9000DDE9020100F0B4FB00F0D2FB02460B4697
:100BA000DDE9020100F0DAFB00224B4600F096FC82
:100BB000CDE90201CAE700BFA08601000000244081
:100BC0000000F03F84D797410DF11100381A0DF164
:100BD000110702E0401E6D1E7F1C39783029F9D0C4
:100BE000BBF1660F08BF691C04D0BBF1650F0CBFD9
:100BF00001210021226B8E1836B2B042B8BF0646E2
:100C000036B231001AD4814204DA785C3528A8BFA4
:100C1000392000DA30207A18521E00E0761E12F8D1
:100C20000139491E8342F9D0392802D1785C401C31
:100C30007854002902D57F1E761C6D1C2DB29DF8BC
:100C40003810009533B23A46204600F003F80FB052
:100C5000BDE8F08F2DE9F04786B006468A469046FB
:100C60001D4600F056FE012D406A376B90F800904B
:100C700002DA01250FF278284AF02000BDF9384049
:100C8000662808BF641C12D0672878D114F1040FBD
:100C90007BDBBC4279DA96F83800641C000702D48A
:100CA000BD42B8BF2F4624B23F1B48BF002724B225
:100CB000F068B169012C23DA4A1C30234354012F18
:100CC00003DA96F83800000703D5F06800F80290C0
:100CD000521CE742B8BF7C4224B260427062E719FE
:100CE000AF42B261B8BF3D46F068B3692DB2F5615D
:100CF0002A464146184400F0D9F9781BB062BCE09E
:100D000022469542084416DA2A46414600F0CEF9BA
:100D1000B1696918601B012FB161706203DA96F83E
:100D20003800000705D5F06800F80190F069401C14
:100D3000F061B762A1E0414600F0B8F9B06920184F
:100D40002D1B012F03DA96F83810090703D5F16837
:100D500001F80090401CB0612DB2AF42B8BF3D46D3
:100D6000F068B3692DB22A4608EB0401184400F07C
:100D70009DF9B0692818B061781B70627DE0BAF106
:100D8000610F14D14FF0700A16E0BD4204DA96F8F4
:100D90003810090758BF2F467F1E48BF0027BAF1F9
:100DA000670F14BF4FF0450A4FF0650A04E0BAF12F
:100DB000410F08BF4FF0500AB169F368481CB06199
:100DC000012F18F8012B5A5403DA96F83810090746
:100DD00017D5F168431CB36101F80090012F10DBB7
:100DE0006D1E2DB2AF42B8BF3D46F0682DB22A4607
:100DF0004146184400F05AF9B0692818B061781BD0
:100E00007062F068B1690144200081F800A004D448
:100E10002B20487001F1020804E02D224A7001F1F4
:100E200002086442002502AF08E00A22684600F08A
:100E300089FD019807F8010B6D1C009C21B2012966
:100E4000F3DA022D06DA4AF02000652804BF3020CC
:100E500008F8010B4DB9302008F8010B07E06D1EB2
:100E600002A8405D303008F8010B012DF7DAF06878
:100E7000B1690844A8EB0000F06196F8380000F072
:100E8000140010280DD17069B1690818716A08182A
:100E9000F1690818B16A0818716B8842BCBF081A5A
:100EA000306206B0BDE8F087F8B504460D46164638
:100EB0001F46002077B116F8011BA868A047A8605C
:100EC00030B1E86A401CE86200207F1EF3D1F2BD19
:100ED0004FF0FF30F2BD0000686A6C747A4C00007D
:100EE0006E616E004E414E00696E6600494E4600CE
:100EF00030008268521C8260426832B10268531C22
:100F0000036011704168491E416070470278C9B2A0
:100F10008A421AB11CBF10F8012FF9E718BF002050
:100F200070470268531C03601170704700F10103A1
:100F3000810704D010F8011B89B18107FAD102683A
:100F4000B2F10131914311F0803F04BF50F8042FFA
:100F5000F6E710F8011B11B110F8011BFBE7C01AEE
:100F600070470000C9B2830706D0521E22D310F882
:100F7000013B9942F7D11FE0083A13D302F1040272
:100F800041EA012141EA014150F8043B121F21BF0F
:100F90004B40A3F1013C2CEA030C1CF0803FF3D042
:100FA000C9B2001F083210F8013B521E28BF91EA57
:100FB000030FF8D818BF0120401E70471B4213D101
:100FC000094236D12AB18446B0FBF2F002FB10C2CE
:100FD000704700F0BFBCFCD30022002370470B0019
:100FE0000200002100207047904271EB030CF6D301
:100FF00070B5B1FA81F4B3FA83F52C1BA340C4F1A8
:10100000200532FA05F63343A2405FF00046E64081
:1010100002E05B085FEA3202841A71EB030524BF29
:10102000204629467641F4D302000B00300000210F
:1010300070BD012ACFD970B5140C20D0B1FA81F45B
:10104000B2FA82F5C4F120046419B4F12006D6D3B3
:10105000B2405FF00044F440002502E052085FEA2D
:101060003303C61A71EB020E24BF30467146644149
:101070006D41F3D302000B002000290070BD0C4627
:10108000B1FBF2F102FB11452D0445EA1045B5FB19
:10109000F2F402FB145580B240EA0545B5FBF2F0CC
:1010A00002FB105240EA044070BD000062B38B079F
:1010B00008D0521E11F8013B00F8013B00F02480DB
:1010C0008B07F6D1830740F0208000BF103A07D38A
:1010D00030B4B1E83810103AA0E83810F9D230BC7A
:1010E000530724BFB1E80810A0E8081044BF51F826
:1010F000043B40F8043BD20724BF31F8022B20F810
:10110000022B44BF0B7803707047083A07D3B1E84D
:101110000810083A40F8043B40F804CBF7D25307D4
:10112000E4E730B4436803F000420121C3F3130342
:101130004360002B04BF0368002B08D10DE0036857
:10114000DD0F45EA440444605B000360491E4468C7
:10115000E302F4D5C4F31303436043681A434260C7
:10116000084630BC704700004FF4001C1CEB410FD8
:1011700094BF1CEB430F09E041EA030C50EA4C0C0E
:1011800052EA0C0C03D2994208BF9042704714BF38
:101190008B428242704700004FF4001C1CEB410F51
:1011A00094BF1CEB430F09E041EA030C50EA4C0CDE
:1011B00052EA0C0C03D28B4208BF8242704714BF24
:1011C000994290427047000070B504460D46606831
:1011D000C0F30A5040F2FF71884207D160680003F3
:1011E00004BF2068002817D0022070BD20B9204617
:1011F000FFF797FF012866DA012D0FDB40F2FF7140
:10120000091A8D420AD36068002847BF00202F4981
:1012100000202F49C4E90001012070BD4142A942CC
:10122000616806DA6FF31E51401941EA00506060B0
:1012300040E0401E63684519012205F1350062F364
:101240001F53352801F00041636003D36160002023
:10125000206070BD002015F11F0F04DA20682360A4
:101260000022203562606A4212D0401E256880410B
:10127000C2F12003C0439D4045EAD07025686668EE
:10128000D54006FA03F32B4323606368D3406360C1
:1012900062680A43B0F1004F626003D80DD1207834
:1012A000C0070AD52068401C2060206828B9606803
:1012B000401C60604FF0FF3070BD6068884204BF22
:1012C00020680028F6D1002070BD00BF0000F0FFAC
:1012D0000000F07FF446400D40EAC120490006D2EC
:1012E00000F014F8004248BF6FF00040604700F083
:1012F0000DF84FF0004188428CBF084640426047DD
:10130000400D40EAC120490080F00D8040F00040CF
:10131000490DA1F58061491C05D4D1F11F0154BFCD
:10132000C840C01770474FF000007047010040F1FF
:101330000980F446404200F005F851F00041604752
:10134000010000BF09D0B0FA80F18840C91CC1F586
:101350008461090501EBD02140057047F0B44FF0DE
:10136000004591EA030F44BF6B4000F0F5BA00BF9F
:10137000841A71EB030604D26E40001BB1411219AE
:1013800073414FF4001C1CEB410F34BF7CEB430650
:1013900084E00C0DA4EB1356362E7DDC012E43DCCD
:1013A00045EAC32343EA525312BFD20292025B08BA
:1013B000240545EAC12141EA5051D2EBC0209941B0
:1013C00025D407D1B0FA80F610FA06F164D00020D7
:1013D000203608E0B1FA81F6B140C6F1200220FAC9
:1013E00002F21143B0404FEAF474B4EB465434F0C7
:1013F00001064FEA74040AD8D6F50016760D04F0FB
:101400000044F04061FA06F25040F1404840C00A02
:1014100040EA415021F0004128BF5FEA500550F1F9
:10142000000044EBD12137E045EAC323DB0A45EA5B
:10143000C121C90AB6F120050EDD42EA0242120CB2
:10144000C5F1200603FA06F6EB4042EA06056D42B6
:10145000984161F100010DE062FA06F5F240554055
:1014600063FA06FC82EA0C02F3405A406D42904156
:1014700061EB030111F4801F05D1641E620502D0E7
:101480006D004041494121F48011430875F100434A
:1014900050F1000041EB0451F0BC70471CEB410FD0
:1014A00015D223F0004352EA43060BD04FEA4C0C0E
:1014B000BCEB410F04D80C0D661E342EB7DDEBE7F4
:1014C000801A994150EA410608BF0021E4E708BFAD
:1014D0001CEB430F28BF6FF00001DDE7B0B581EAD8
:1014E000030C0CF0004C40F2FF7515EA11541DBFBF
:1014F00015EA1357AC42AF4239E0E41923EA4553E9
:1015000043F48013C90241F0004141EA505EC70232
:101510001100A7FB020200284FF00000EEFB0120A3
:101520004FF00001E3FB072118BF42F00102401811
:1015300000214941E3FB0E01A4F580640F0302D2B0
:1015400052004041494154F101046CDD470872F1F9
:10155000004250F1000051EB0451A1F580115CBF35
:1015600041EA0C01B0BD4CEA05510020B0BD05EACE
:101570001357AC4214BFAF4241E050EA410E1CBFCA
:1015800052EA430E02E061460020B0BD24423C44D2
:101590001BD15FEA070EF6D0090302BF0146002007
:1015A000AEF1140EB1FA81F7AEEB070401FA07FEB3
:1015B0000C37C7F1200100FA07F7C8404EEA000EC9
:1015C00023EA455343F48013A2E733F00043B3FA10
:1015D00083F704BFB2FA82FE77440B3FE41BB7F1F6
:1015E000200E2FBF02FA0EF3BB40C7F1200E22FAE5
:1015F0000EFE38BF43EA0E03BA40641C82E750EA8D
:10160000410E14BF52EA430E6FF000014FF4001771
:1016100017EB430F8ABF194617EB410FB5E74CEAAA
:1016200005510020B0BDD4F10104B4F120070FDA58
:10163000C4F12007520828BF42F0010210FA07F552
:1016400001FA07F7E1BF2A43E0403843E1400FE0E9
:10165000352C98DCC7F1200452EA400220FA07F248
:1016600018BF42F0010231FA07F0A1400A430021FD
:1016700072F1004250F1000051EB0C01B0BD0000CE
:101680002DE9F04140F2FF7581EA030C0CF0004CAB
:1016900015EA11541DBF15EA1357AC42AF42E9E0F9
:1016A000BC41C1F31301C3F31303801A994143F4FE
:1016B000801304D2641E4000494180185941C90278
:1016C00041EA5051B1FBF3F603FB1611A2FB06757C
:1016D000D7EBC020A94102D2761E80185941C90219
:1016E00041EA5051B1FBF3FE03FB1E11A2FB0E7544
:1016F000D7EBC020A94103D2AEF1010E80185941A9
:10170000890241EA9051760546EA8E2EB1FBF3F646
:1017100003FB1611A2FB0675D7EB8020A94102D26C
:10172000761E80185941C90241EA50514EEA060E10
:10173000B1FBF3F603FB1611A2FB0675D7EBC02035
:10174000A94102D2761E80185941C90241EA50517E
:10175000B1FBF3F703FB1711A2FB0735D3EBC02056
:10176000A94167F100070CBF004247F0010766F38B
:10177000D5274FEA1E31B80814F5806414DDBD0783
:1017800075F1004250EB0E5051EB045111F5801FE2
:101790005CBF41EA0C01BDE8F0814CF07F6141F093
:1017A000E0410020BDE8F081BD076D0840EA0E5021
:1017B00041F48011D4F10104B4F120060ADAC4F135
:1017C00020060200E04001FA06F3E1401843B2406F
:1017D00015430EE0342C14DCC6F1200445EA400524
:1017E0006D0820FA06F2154321FA06F0A1400D43D8
:1017F000002175F1004250F1000051EB0C01BDE8F1
:10180000F08100205FEA0C01BDE8F081CFB99218A9
:101810005B41B3FA83F704BFB2FA82F6BF190B3FFC
:10182000B7F120062FBF02FA06F3BB40C7F120062E
:1018300022FA06F638BF3343BA401CB1E419641EDD
:101840002FE77F4231F00041B1FA81F404BFB0FAD2
:1018500080F6A4190B3CB4F120062FBF00FA06F164
:10186000A140C4F1200620FA06F638BF3143A0405B
:101870003C1B16E7AC421ABF05EA1357AF4214E00F
:1018800050EA41061CBF52EA4306BFE750EA41074F
:10189000304661461CBF41EA0551BDE8F08152EA7D
:1018A000430C08BFC143BDE8F08100204FF400168F
:1018B00016EB410F98BF16EB430F08BF16EB410F15
:1018C00024BFC14305E016EB430F0CBF61464CEA51
:1018D0000551BDE8F081000080B5134800F0A6F87E
:1018E0000FF24C020FF244010160426241600FF2BC
:1018F0004402826381600FF24402C1600161416170
:1019000081618162C16201634163C26301644164B8
:1019100001BD10B5044800F089F80446206808B9F4
:10192000FFF7DAFF204610BD78000020000000001D
:101930002E00000066616C736500000074727565AE
:101940000000000091FBF2F303FB1211C0E900312B
:101950007047000070470000841A71EB030603D241
:10196000001BB141121973414FF4001C1CEB410FD5
:1019700034BF7CEB430443E00C0DA4EB1356352E2F
:1019800050DC45EAC323DB0A45EAC121C912B6F19E
:1019900020050DDD63FA05F6EB4086EA03051242E9
:1019A00018BF45F00105C01851F100010CD213E039
:1019B00062FA06F5F2405540F3415A40B340F34015
:1019C0005A408018594107D349085FEA30005FEA5E
:1019D000350528BF45F0010501F58011420875F174
:1019E000004250F1000041EB0451F0BC4FF4001CE8
:1019F0001CEB410F38BF70470020090D09057047E7
:101A00001CEB410F10D252EA43060BD0BCEB410F46
:101A100005D80C0DAB43661E342EB5DD02E0AB439A
:101A200080185941F0BC7047F0BC70477047000007
:101A3000F8B505000024DFF82C048078C61CDFF818
:101A40002804FFF773FA0022DFF81C740100380045
:101A500000F038FAF6B23200DFF80814DFF80804B4
:101A600000F064FA2800FFF761FA8DF8000000200A
:101A70008DF801006946DFF8F00300F08DFA2900C7
:101A800000F08AFA002505E0DFF8DC03EDB2405DE6
:101A900004196D1CDFF8D003FFF748FAEDB2854258
:101AA000F2D3200080B2000A8DF800008DF80140CA
:101AB00000208DF802006946DFF8AC0300F06CFAF4
:101AC000010005A000F007FBDFF89C13DFF89C0382
:101AD00000F04AFBF1BD00002573000070B5A2B014
:101AE000002500260024DFF87C038078C41CDFF882
:101AF00074032100C9B2405CC01C0419E4B2220086
:101B0000DFF86013DFF8680300F02EFB002605E025
:101B1000DFF85003F6B2805D4519761CF6B2E4B2E8
:101B2000A01E8642F4DBADB2CE48E4B2204410F8E9
:101B3000020CCC49E4B2214411F8011C51EA002006
:101B4000854201D001202CE1002600E0761CF6B28F
:101B5000082E0ADAC748F6B250F82610C14800F03D
:101B600015FB0028F2D0C4480670F6B2082E01D149
:101B7000022016E109A8642100F00CFB06A8002150
:101B8000002200230EC00C380025BB480078002836
:101B900010D0022876D05FD3042800F09380C0F0E4
:101BA0007F80062800F0B280C0F09E80072800F0F9
:101BB000BF80EEE000F05AFB4CF2503000F0AEFB7C
:101BC0000021AE4800F09AFCAC488068AB49096936
:101BD00000F020FDA949896900F01CFD05002800DE
:101BE00000F05AFDCDE90401A448806900F054FDDD
:101BF000CDE90201A148006900F04EFDCDE90001E8
:101C00009E48806800F048FD02000B009C4800F0F0
:101C1000ABFA00F026FB00F038FB00F02CFB00F0E4
:101C200039FB4CF2503000F079FB2800954900F068
:101C30005BFD04D2944909A800F068FD03E09349D4
:101C400009A800F063FD09A8FFF7F2FE8A480178B1
:101C50008F4800F089FA9CE000F0FEFA00F015FBD6
:101C600000F009FB4CF2503000F058FB874909A8FE
:101C700000F04CFDFFF7DCFE7F480178844800F05F
:101C800073FA86E000F00BFB804909A800F03EFDE6
:101C9000FFF7CEFE784801787D4800F065FA78E0DD
:101CA00000F0DFFA00F0E7FA00F0EAFA774909A855
:101CB00000F02CFDFFF7BCFE6F480178744800F07F
:101CC00053FA66E000F0C8FA00F0D5FA00F0DDFA49
:101CD0006E4909A800F01AFDFFF7AAFE66480178D0
:101CE0006B4800F041FA54E000F0BBFA00F0BEFA95
:101CF00000F0CBFA654909A800F008FDFFF798FE4F
:101D00005D480178624800F02FFA42E000F0A4FA42
:101D100000F0ACFA00F0B9FA5C4909A800F0F6FC52
:101D2000FFF786FE544801785A4800F01DFA30E06B
:101D30000121524800F0E2FB002612E04F48F6B2C3
:101D400050F8260000F0A8FCCDE90001F6B2320000
:101D5000514906A800F0FCFC06A909A800F01CF9EE
:101D6000761CF6B2072EE9DB4448C06900F094FC0B
:101D700002000B00494906A800F0EAFC06A909A8E0
:101D800000F00AF9FFF754FE3B480178414800F0A3
:101D9000EBF9E4B20022334D2100280000F092F864
:101DA000002022B070BD45F255523D4B1A60C0B2C2
:101DB0003C4A106089B23C4801604AF6AA20384982
:101DC00008604CF6CC403649086070474AF6AA20B5
:101DD00033490860704780B5002000F08DFA00F0AC
:101DE000A5F900F0CFFC00F0D9F900F075FB00F088
:101DF0007BFB00F02BFD00F056FD40F2E241042099
:101E0000FFF7D1FF294800F0AFF929480088000406
:101E10000CD5002027490870FFF760FEC0B2010012
:101E2000254800F0A1F900202149088021480078C8
:101E3000012809D1214800681F2805D300201F4927
:101E40000860002000F0B5FC1D480068652805D337
:101E500000201B490860012000F0ABFCFFF7B6FF33
:101E6000D3E700000005002000090020C43A000864
:101E7000543A0008000000201E0E0020F00D002043
:101E80008C38000800004040CC3A0008D43A0008E2
:101E9000643A0008743A0008A03A0008AC3A000816
:101EA000003000400430004008300040EC390008A9
:101EB0001C0E00201F0E0020003A0008180E002003
:101EC000140E002062F30F2262F31F42401810F03C
:101ED000030308D0C91A1FD3DB0748BF00F8012D40
:101EE00028BF20F8022D130030B4144615461039CF
:101EF00028BF20E93C00FAD8490728BF20E90C0098
:101F000048BF40F8042D890028BF20F8022D48BFA3
:101F100000F8012D30BC7047C91818BF00F8012D1A
:101F2000CB0728BF00F8012D7047000001B58B07D3
:101F300018D1121F21D351F8043BA3F1013C2CEA24
:101F4000030C1CF0803C04BF40F8043BF1E79CFA12
:101F50008CFCBCFA8CF1C1F118018B40CB4040F8ED
:101F6000043B13E0042A09D311F8013B521E00F888
:101F7000013B5BB18B07F7D1DBE7121D5AB111F8BA
:101F8000013B521E00F8013B03B1F8D111001CBF08
:101F90000022FFF79BFF01BD024600E0521C1378B0
:101FA000002BFBD111F8013B137012F8013B002B01
:101FB000F8D1704700B585B0012144F2040000F06B
:101FC00013FD4FF40070ADF8000018208DF80300E9
:101FD00003208DF8020069465F4800F047FD4FF48A
:101FE0008060ADF8000004208DF8030069465A486F
:101FF00000F03CFD5FF4E13001900020ADF80800F6
:102000000020ADF80A000020ADF80C000020ADF86B
:1020100010000C20ADF80E0001A9504800F08AFD18
:1020200001214E4800F0E6FD05B000BD00B587B0C7
:1020300001215FF4002000F0E7FC0121102000F0F6
:10204000D3FC4FF48060ADF8000018208DF8030039
:1020500003208DF802006946414800F007FD4FF467
:102060000060ADF8000004208DF8030069463C488C
:1020700000F0FCFC34208DF8040003208DF80500EE
:1020800002208DF8060001208DF8070001A800F05D
:1020900012FE5FF4E13002900020ADF80C00002049
:1020A000ADF80E000020ADF810000020ADF81400CF
:1020B0000C20ADF8120002A92A4800F03BFD0122D5
:1020C00040F22551274800F0A3FD0121254800F0EA
:1020D00091FD07B000BD0EB430B5C0B0002443ABD5
:1020E00002004FF48071684600F01EFE05000DE00E
:1020F00040211C4800F0BDFD0028F9D06846E4B23C
:10210000015D89B2174800F0ACFD641CE4B2FF2CFD
:1021100008D020002900C0B2C9B2884202D2EDB274
:10212000002DE5D140B030BC5DF810FB80B5FFF765
:1021300041FFFFF77BFF01BD10B5040040210748B8
:1021400000F097FD0028F9D02100C9B289B20348F8
:1021500000F087FD200010BD00080140003801405C
:1021600000100140004C00400EB400B582B003A93D
:10217000009102466B460121034878440A30FDF77E
:10218000D9FF06BC5DF810FB1918000080B500F0FF
:10219000E9FD02BD002200F0FDBD000080B5012177
:1021A000102000F021FC4FF47070ADF80000032007
:1021B0008DF8020010208DF803006946234800F0D6
:1021C00055FC00F058F800F04CF800F05EF800F014
:1021D00066F801BDC0B2002803D140201C49086048
:1021E00015E0C0B2012803D18020194908600EE033
:1021F000C0B2022804D14FF480701549086006E08F
:10220000C0B2032803D14FF4007011490860704731
:10221000C0B2002803D140200E49086015E0C0B2CA
:10222000012803D180200B4908600EE0C0B20228CB
:1022300004D14FF480700749086006E0C0B203285B
:1022400003D14FF40070034908607047001001404B
:10225000141001401010014080B50020FFF7D8FF96
:1022600001BD80B50020FFF7B5FF01BD80B501209D
:10227000FFF7CEFF01BD80B50120FFF7ABFF01BD29
:1022800080B50220FFF7A6FF01BD80B50220FFF751
:10229000BFFF01BD80B50320FFF7BAFF01BD80B5C8
:1022A0000320FFF797FF01BD40B2002808D50901C0
:1022B000274A40B210F00F00104400F8041C03E05D
:1022C0000901244A40B21154704780B5411EB1F152
:1022D000807F01D301200EE0401E1F4908600F21BE
:1022E0005FF0FF30FFF7E0FF00201C490860072087
:1022F0001B490860002002BD80B51A4800681A49D1
:10230000B0FBF1F0FFF7E1FF002800D0FEE7144832
:102310000068400840001249086001BD01B40098FF
:10232000124908600E48006850F001000C4908602E
:102330000E4800680028FBD101B070470B480068C8
:10234000002804D009480068401E0849086070470A
:1023500018ED00E000E400E014E000E018E000E028
:1023600010E000E034000020A0860100100E0020E4
:1023700080B50121182000F037FB00208DF8030004
:102380000320ADF8000003208DF802006946944850
:1023900000F06CFB00208DF803003F20ADF800003A
:1023A00003208DF8020069468E4800F05FFB01BDF6
:1023B00000B585B001214FF4007000F015FB4FF41B
:1023C000004000F09BFA884800F0FEFC00200090DE
:1023D00001208DF80500002003905FF4602002903A
:1023E00008208DF8100001208DF8040069467E4811
:1023F00000F018FD0523012208217B4800F07CFD38
:10240000052302220921784800F076FD05230322E6
:102410000A21754800F070FD052304220B21724843
:1024200000F06AFD052305220C216F4800F064FDD1
:10243000052306220D216C4800F05EFD05230722CE
:102440000E21694800F058FD052308220F21664837
:1024500000F052FD0121644800F016FD01216248A0
:1024600000F005FD604800F01CFD5F4800F01EFD17
:102470000028FAD15C4800F023FD5B4800F025FD00
:102480000028FAD105B000BD00B58BB001210120B4
:1024900000F09AFA554800F09BFD554800905548C9
:1024A00001900020029000200A904FF48070069066
:1024B0004FF480600790502003908020059000200A
:1024C0000490202008904FF4005009906946474836
:1024D00000F003FE0BB000BD80B5FFF749FFFFF72A
:1024E000D3FFFFF765FF01BD80B501213E4800F035
:1024F000F6FC01213D4800F00EFE01BD2DE9F04142
:10250000060088460020002762E03A4AC9B20B0163
:102510001A44FFB232F817201018491CC9B20A2910
:10252000F3DB0A21B0FBF1F000F020FEFFB246F829
:102530002700FFB256F8270000F0AEF85FF06632D1
:102540002D4BFEF7CBFF00222C4BFFF799F800F044
:102550001DFEFFB246F82700FFB256F827002849B3
:10256000FFB251F8271000F059FEFFB246F82700DD
:102570005FFA88F8B8F1000F28D0FFB256F82700AC
:102580002049FFB251F8271000F0C6FE00F084F891
:1025900004000D0035F000451A48FFB250F827003E
:1025A00000F07AF85FF03332174BFEF797FF220006
:1025B0002B00FEF7D9FD09D214480078002805D178
:1025C00001201249087000201149086000207F1C7A
:1025D000FFB2082F01DA0021A0E7BDE8F08100007A
:1025E000000C01400010014000240140080002409E
:1025F0004C240140000D002066660A400000B040F7
:1026000004390008243900083333D33F1F0E00205B
:10261000180E002090EA010F44BF81F0004100F045
:1026200083BE00BF421A3CBF801A89184FF0004C8D
:10263000C0F3C752FF2A24D0C1F3C75313B3D21A31
:10264000D2F1190327DD4CEA01214CFA03F321EA08
:102650000303D140C20D4CEA0020401834BF20EAE9
:102660000C004CEA5000D20553EA006373EB0C0CEB
:1026700052EB1020420012F1807F38BF7047C00D2E
:10268000C0057047490212BF9A4200EB5120F8E79B
:10269000D2F11703D9D570475FF0FF0C1CEAD05177
:1026A00014BF614506E0C110400721F0E04101F18F
:1026B0006051704779B900F0004100020AD0B0FAC9
:1026C00080FC00FA0CF001F16051A1EB0C5101EB20
:1026D000D0214005704741020CBF40F4E0016FF08B
:1026E00000010020704700004FF0807C1CEB400F81
:1026F00094BF1CEB410F05E040EA010C5FEA4C0C73
:1027000001D28842704718BF814270475FEA000CCF
:10271000830706D011F8013B00F8013BB3B18307F2
:10272000F8D10A68B2F1013323EA020313F0803FC3
:1027300002BF40F8042B51F8042FF3E711F8013BD6
:1027400000F8013B13B111F8013BF9E7604670470F
:102750000CB41CB5044604A801900A46009401ABD1
:102760006946074878441830FDF7E4FC009A0021D8
:10277000117000285CBF0098001B16BC5DF80CFBB4
:10278000A3E7FFFF80B50121802000F02DF938205C
:10279000ADF8000003208DF8020010208DF8030032
:1027A0006946134800F062F93821114800F0BEF97B
:1027B00001BDC0B2002806D10E48006890F00800A4
:1027C0000C49086012E0C0B2012806D1094800682F
:1027D00090F010000749086008E0C0B2022805D157
:1027E0000448006890F0200002490860704700002B
:1027F000001C01400C1C014080B54FF4E06000F06B
:1028000055FA1C208DF8000000208DF801000320EF
:102810008DF8020001208DF80300684600F04BFAA5
:1028200001BD80B54FF4E06000F040FA1D208DF846
:10283000000000208DF8010004208DF80200012026
:102840008DF80300684600F036FA01BDE0B5FFF7E9
:10285000D3FF0121012000F0D7F842F20F70ADF84C
:1028600004004720ADF800000020ADF8060000206D
:10287000ADF8020069465FF0804000F0C1FD012123
:102880005FF0804000F021FE012201215FF08040D6
:1028900000F00DFE00215FF0804000F0FAFD002006
:1028A0001449088007BDE0B5FFF7BBFF01210220F6
:1028B00000F0AAF842F20F70ADF804004720ADF81E
:1028C00000000020ADF806000020ADF802006946C7
:1028D000094800F095FD0121074800F0F6FD0122AE
:1028E0000121054800F0E3FD0121034800F0D1FD7E
:1028F00007BD00001C0E00200004004000215249CA
:10290000096831F4404101434F480160704700219C
:102910000021002200214C49096811F00C01002916
:1029200004D0042905D0082906D021E047490160D8
:1029300020E0464901601DE04349096811F4701127
:10294000414A126812F48032890C891C002A03D192
:102950003F4A514301600AE03B4A1268920303D5A3
:102960003B4A5143016002E0384A5143016001E0B3
:10297000364901603449096811F0F0010909354A06
:10298000515C0268CA4042602F49096811F4E06155
:10299000090A304A515C4268CA4082602A49096883
:1029A00011F46051C90A2B4A515C4268CA40C260A6
:1029B0002549096811F44041890B274A515CC268D6
:1029C000B2FBF1F101617047C9B2002905D023497A
:1029D000096808432149086005E02049096831EA8F
:1029E00000001E4908607047C9B2002905D01C4983
:1029F000096808431A49086005E01949096831EA7D
:102A00000000174908607047C9B2002905D0154970
:102A1000096808431349086005E01249096831EA6A
:102A20000000104908607047C9B2002905D00E495E
:102A3000096808430C49086005E00B49096831EA58
:102A400000000949086070470410024000127A0033
:102A500000093D002000002030000020141002403A
:102A6000181002401C1002400C10024070B40022EA
:102A700000250023002600240025CA7812F00F024A
:102A8000CB78DB0601D58B781A430B781B0621D057
:102A90000468002306E0CD78482D02D101259D4031
:102AA00005615B1C082B14D2012515FA03F60D886D
:102AB0003540B542F5D19E000F25B540AC4312FA22
:102AC00006F52C43CD78282DE5D101259D404561A3
:102AD000E7E704600B88FF2B26DD4468002320E035
:102AE000012513F1080615FA06F60D883540B542A2
:102AF00016D19E000F25B540AC4312FA06F52C43C3
:102B0000CD78282D04D1012513F10806B540456183
:102B1000CD78482D04D1012513F10806B540056193
:102B20005B1C082BDCD3446070BC704789B2016128
:102B30007047000070B586B004000D000020002032
:102B4000002100210026A88900282600208A4CF6B2
:102B5000FF710840E98808432082A0894EF6F311EE
:102B60000840A9882A8911436A8911430843A08132
:102B7000A08A4FF6FF410840A9890843A082684611
:102B8000FFF7C5FE1A48864201D1039800E002987B
:102B9000A189090406D51921484329684900B0FBD9
:102BA000F1F105E01921484329688900B0FBF1F1F2
:102BB0006420B1FBF0F000010209642303FB121151
:102BC000A289120408D5C90032316422B1FBF2F1A6
:102BD00011F00701084307E0090132316422B1FB1B
:102BE000F2F111F00F010843208106B070BD000022
:102BF00000380140C9B2002904D0818951F4005144
:102C0000818104E081894DF6FF7211408181704716
:102C100030B4002300240024002589B240F66A1352
:102C2000994205000800C0B24309DBB289B211F035
:102C30001F04012010FA04F4012B01D10C3504E02B
:102C4000022B01D1103500E01435D2B2002A03D096
:102C500028682043286002E02868A043286030BC30
:102C60007047C905C90D818070478088C005C00DB7
:102C70007047002289B2B1F5007F0088084201D078
:102C8000012200E000221000C0B2704700220022A2
:102C900089B240F66A12914289B20A0A012111FAF8
:102CA00002F292B2D14301807047000019490843F3
:102CB000194908607047002100220F23C1780029BC
:102CC0001DD01549096811F4E061D1F5E061090AE8
:102CD000D1F10402CB404178914082781A401143EF
:102CE00009010E4A0378D1540121027812F01F0223
:102CF00091400B4A0078401142F8201009E0012170
:102D0000027812F01F029140064A0078401142F802
:102D1000201070470000FA050CED00E000E400E030
:102D200000E100E080E100E008B584B000230293F8
:102D300011B90093019302E00090481E019004AB8A
:102D40006946074878441830FDF7F4F9009911B145
:102D5000009A00211170002858BF029805B000BDEC
:102D600093E1FFFF70B50C462578290006D170BDB0
:102D700011F8013F1678B34206D0401C2946FEF7F1
:102D8000C5F828B10146224612F8013F002BEFD1C9
:102D900070BD000000B500BF130096469446103980
:102DA00028BFA0E80C50FAD85FEA417C28BF0CC0CD
:102DB00048BF40F8042BC90728BF20F8022B48BFA2
:102DC00000F8012B00BD000080B5DFF8F01188424B
:102DD0000AD101214FF40070FFF726FE00214FF4C5
:102DE0000070FFF721FE1CE0DFF8D41188420AD101
:102DF00001214FF48060FFF717FE00214FF480603F
:102E0000FFF712FE0DE0DFF8BC11884209D1012165
:102E10004FF40040FFF708FE00214FF40040FFF799
:102E200003FE01BD30B4002200234268DFF8984160
:102E300022400C680D7954EA0524224342608268DE
:102E4000DFF888412240CC688D682C434D7954EAE4
:102E5000450422438260C26A32F47002097C491E32
:102E60000B43DBB252EA0352C26230BC7047C9B2B4
:102E7000002904D0816851F00101816003E081687C
:102E80004908490081607047C9B2002904D08168AF
:102E900051F48071816003E0816831F48071816058
:102EA0007047816851F00801816070470021806897
:102EB000000701D5012100E000210800C0B27047E1
:102EC000816851F0040181607047002180684007EB
:102ED00001D5012100E000210800C0B27047C9B24D
:102EE000002904D0816851F4A001816003E0816869
:102EF00031F4A00181607047F0B400240025C9B20C
:102F00000A2911DBC4680725B1F10A0603277E43AD
:102F1000B540AC43DBB2B1F10A050326754313FAA1
:102F200005F52C43C4600EE004690725032606FB63
:102F300001F6B540AC43DBB2032505FB01F513FAFE
:102F400005F52C430461D2B2072A10DA446B1F2323
:102F5000551E0526754313FA05F5AC43C9B2521E3A
:102F600005235A4311FA02F52C43446324E0D2B2FC
:102F70000D2A10DA046B1F23D51F0526754313FA9B
:102F800005F5AC43C9B2D21F05235A4311FA02F525
:102F90002C43046310E0C46A1F23B2F10D0505261B
:102FA000754313FA05F5AC43C9B20D3A05235A43EC
:102FB00011FA02F52C43C462F0BC704700240140B2
:102FC00000280140003C0140FFFEF0FFFDF7F1FF4B
:102FD00001684FF6FE72114001600021016000217E
:102FE0004160002181600021C1605249884206D1C0
:102FF0005148006850F00F004F4908606CE04F499D
:10300000884206D14C48006850F0F0004A490860F8
:1030100062E04B49884206D14748006850F470602E
:103020004549086058E04749884206D1424800684F
:1030300050F47040404908604EE04349884206D150
:103040003D48006850F470203B49086044E03F4927
:10305000884206D13848006850F47000364908604C
:103060003AE03B49884206D13348006850F070602E
:103070003149086030E03749884206D13648006857
:1030800050F00F003449086026E03449884206D1E8
:103090003148006850F0F0002F4908601CE03049CA
:1030A000884206D12C48006850F470602A490860B4
:1030B00012E02C49884206D12748006850F470403D
:1030C0002549086008E02849884205D1224800685F
:1030D00050F4702020490860704710B40022026844
:1030E0006FF30E128B680C6A23430C6923434C69FF
:1030F00023438C692343CC6923434C6A23438C6A62
:1031000023431A430260CA6842600A6882604968C1
:10311000C16010BC7047C9B2002904D0016851F0E9
:103120000101016004E001684FF6FE721140016088
:103130007047000008000240040002401C000240EA
:103140003000024044000240580002406C0002403F
:103150008000024008040240040402401C040240B3
:10316000300402404404024058040240002800BFDA
:103170000AD0B0FA80F18840D1F19D01C90502065C
:1031800072F1004241EB1020704700004FEAF17CE1
:10319000BCF1E04C2CBFBCF5001F11E05FEA4C0C09
:1031A00034BFBCF17F5F2EE05FEA9C0C4FEA0C1C41
:1031B0004FEA3C0CC10071F100414CEB507070477C
:1031C000C90241EA5051C00218BF41F0010141F06B
:1031D00000414FEA6C50C0F10900212810D240EAAA
:1031E000CC7CCCF1200C11FA0CF070F10040CCF149
:1031F000200C21FA0CF00CF0004C40EB0C00704756
:103200004FEACC707047490011F5001F04D84FEA0F
:10321000CC10FF30C0057047C817704710B5FF23AA
:1032200013EAD0541DBF13EAD1529C429A4239E0AE
:10323000A41ADA0780EA0103134042EA012142EAB4
:103240000020421A3CBF641E01EB4202090AB2FB95
:10325000F1FE01FB1E221202B2FBF1F001FB102273
:103260006EF30F201202B2FBF1FE4EEA00207F3413
:1032700006DDFE2C24DA53EA500050EBC45010BD9A
:10328000D4F1020401FB1E2240F08071192C1DDCD8
:1032900021FA04F0C4F12004A140114371F100426D
:1032A000584110BD9C421ABF03EAD1529A420FE026
:1032B00080EA010E0EF00043400004D0490016D110
:1032C00043F0FF4010BD490008BFD343180010BDB4
:1032D0009C4205D1D21AF7D001F00041484010BD00
:1032E0004A0212BF0846484000F0004010BD4AB9EB
:1032F0000902B1FA81F2914044B1A418C00140F032
:1033000000409EE7C90141F0004152420002B0FA7C
:1033100080F4A040141B94E790EA010F44BF81F0B1
:103320000041FFF77FB900BF431A4FF000423EBF94
:103330005340C01AC91800BFD3095FEAD05C13EB31
:10334000400F34BFB3EB410F40E07CEBD1530CD3C3
:1033500042EA012122D8D1EB402009D3400A28BFFC
:103360005FEA500140EBCC507047401A15D0400244
:10337000B0FA80F2521C9040400A4FEA3C23B3EB73
:10338000026384BF00EB730007E040F400001A16EC
:10339000DB07C2F10102D04018437047182BFCDC58
:1033A00031FA03F202FA03F3591A38BF42F001026C
:1033B000D2EB40203CBF4000ACF1010C5FEACC5C9A
:1033C000C20572F100414CEB5020704713EB400FE7
:1033D0000FD24B0009D0ACEBD153022B03DB4902D7
:1033E000172BDDDD70479143401A4300D5D10020F3
:1033F000704713EB410FD0D36FF00000704700000F
:1034000000220288DFF8FC30984212D0DFF80C313D
:1034100098420ED0B0F1804F0BD0DFF8EC309842DC
:1034200007D0DFF8E830984203D0DFF8E430984264
:1034300004D14FF68F731A404B881A43DFF8D4300B
:10344000984208D0DFF8D030984204D04FF6FF43BE
:103450001A40CB881A4302808A8882850A880285AE
:10346000DFF8A02090420FD0DFF8B02090420BD0C0
:10347000DFF8AC20904207D0DFF8A820904203D0BC
:10348000DFF8A420904201D1097A018601218182CE
:103490007047C9B2002904D0018851F001010180B0
:1034A00004E001884FF6FE72114001807047D2B2ED
:1034B000002A03D082891143818103E0828932EAA4
:1034C0000101818170478184704789B2C9430182BB
:1034D0007047002200220023028A0A40808911EAF4
:1034E000000392B2002A04D09BB2002B01D001222B
:1034F00000E000221000C0B2704789B2C9430182C7
:1035000070470000002C014000040040000800400B
:10351000000C004000100040001400400034014046
:1035200000400140004401400048014010B5002423
:1035300020215548FFF79DFB012835D140F2255148
:103540005148FFF7A3FB5048FFF78FFB04004F489B
:103550000088B0F5806F1CDA00215FF08040FFF733
:10356000B2FF4A480088002809D100215FF080405E
:10357000FFF7A9FF01215FF08040FFF78AFF444871
:1035800042490988445441480088401C3F4908800A
:103590000AE03E48008850F400403C490880002181
:1035A0005FF08040FFF775FF10BD10B500242021AB
:1035B0003848FFF75EFB012835D140F225513548E8
:1035C000FFF764FB3348FFF750FB04002F480088E7
:1035D000B0F5806F1CDA00215FF08040FFF773FFC9
:1035E0002A480088002809D100215FF08040FFF7B9
:1035F0006AFF01215FF08040FFF74BFF2448234919
:103600000988445421480088401C204908800AE069
:103610001E48008850F400401C49088000215FF0DB
:103620008040FFF736FF10BD80B501215FF080407C
:10363000FFF74FFF00280FD01448008850F40040D7
:103640001249088001215FF08040FFF756FF0021FA
:103650005FF08040FFF71DFF01BD80B501210E48DE
:10366000FFF737FF00280DD001210B48FFF745FF7A
:103670000A480068401C0949086009480068401C65
:103680000749086001BD0000004400401C0E0020F6
:1036900000050020004C004000040040140E0020F3
:1036A000180E002080B5FEF749FE01BD7047FEE709
:1036B000FEE7FEE7FEE770477047704780B54E486B
:1036C000006850F001004C4908604C4800684C49C3
:1036D00008404A490860484800684A490840464945
:1036E00008604548006830F480204349086043483A
:1036F000006830F4FE00414908605FF41F00424951
:10370000086000F005F85FF000604049086001BD06
:1037100080B500F001F801BD82B0002001900020CA
:1037200000903548006850F48030334908603248D2
:10373000006810F4003000900198401C019000983F
:10374000002803D10198B0F5A06FF0D12A48006895
:10375000800302D50120009001E000200090009835
:10376000012847D12A48006850F010002849086015
:1037700027480068800880002549086024480068C0
:1037800050F00200224908601C4800681B4908608C
:103790001A480068194908601848006850F48060A9
:1037A000164908601548006830F47C101349086019
:1037B0001248006850F4E810104908600E4800688C
:1037C00050F080700C4908600B4800688001FBD500
:1037D0000A480068800880000849086007480068B7
:1037E00050F00200054908600448006810F00C0021
:1037F0000828F9D102B070470010024004100240BE
:103800000000FFF8FFFFF6FE0810024008ED00E0A0
:103810000020024019E050F8041BCB0744BFA9F177
:1038200001035918121F0023042A41F8043BF9D25E
:103830005FEA827C0B4604D54FF0000CA1F800C073
:103840009B1CD10744BF0021197050F8042B002A9B
:10385000E1D1704730B5016842688468014401EBEA
:103860005203D20748BF4C44994201D10C3030BDBD
:1038700011F9012B11F8015B002A04F8015B02D554
:10388000521CF9D1F0E7521EF4D5EDE741564343FF
:1038900020252E32662052544320252E32662044A5
:1038A00052414D20252E32660D0A766F6C5F3373C0
:1038B000756D20252E32660D0A00000010B50749EF
:1038C00079441831064C7C44163404E00A68081D1B
:1038D000114488470146A142F8D110BD08000000FC
:1038E0002400000031FFFFFF200900000005002038
:1038F0000000000061FFFFFFA8020000C4000000FC
:10390000000000209A99993E1D55553F0000003F48
:10391000C7BAE83EC7BAE83E9A99993E0000803F90
:103920009A99993E33339B406666E63F00004040DB
:1039300033335340333353400000A0400000C03FB6
:103940000000A04000F00BF8002801D0FFF7B6FF00
:103950000020AFF30080FEF73EFA00F002F80120ED
:10396000704700F001B800000746384600F002F842
:10397000FBE7000080B5AFF30080024A1100182079
:10398000ABBEFBE7260002004275726E20466972EC
:103990006D7761726520507265706172650000001C
:1039A00038B504460D46284600F006F8A84218BF70
:1039B0000024204632BD00000149FEF7BDBB00BF18
:1039C000380000204275726E204669726D77617210
:1039D00065205374617274004275726E204669727C
:1039E0006D7761726520456E6400000073797374B1
:1039F000656D2073746172742E2E2E0D0A00000006
:103A00006572726F7220636F64653A2025640D0AD7
:103A1000000000004368616E6765205573622041B5
:103A2000304230004368616E676520557362204103
:103A3000304231004368616E6765205573622041F2
:103A4000314230004368616E6765205573622041E2
:103A5000314231003E3E3E257320202025640D0A70
:103A600000000000636D642564206F6B2E2E2E0D08
:103A70000A0000000D0A636D642564206F6B2E2E12
:103A80002E0D0A000148804701480047BD36000856
:103A9000B93A000847657420566F6C746167650019
:103AA000566F6C25643D252E32662C00566F6C37A0
:103AB0003D252E3266000000AFF30080AFF300809A
:103AC000FFF740FF3E3E3E25730D0A004661696CDC
:103AD000000000005375636365737300FFF7FEBF5A
:103AE000FFF7FEBFFFF7FEBFFFF7FEBFFFF7FEBF0A
:103AF000FFF7FEBFFFF7FEBFFFF7FEBFFFF7FEBFFA
:103B0000FFF7FEBFFFF7FEBFFFF7FEBFFFF7FEBFE9
:103B1000FFF7FEBFFFF7FEBFFFF7FEBFFFF7FEBFD9
:103B2000FFF7FEBFFFF7FEBFFFF7FEBFFFF7FEBFC9
:103B3000FFF7FEBFFFF7FEBFFFF7FEBFFFF7FEBFB9
:103B4000FFF7FEBFFFF7FEBFFFF7FEBFFFF7FEBFA9
:103B5000FFF7FEBFFFF7FEBFFFF7FEBFFFF7FEBF99
:103B6000FFF7FEBFFFF7FEBFFFF7FEBFFFF7FEBF89
:103B7000FFF7FEBFFFF7FEBFFFF7FEBFFFF7FEBF79
:103B8000FFF7FEBFFFF7FEBFFFF7FEBFFFF7FEBF69
:103B9000FFF7FEBFFFF7FEBFFFF7FEBFFFF7FEBF59
:103BA0001F88390008C4390008D8390008143A00C1
:103BB00008243A0008343A0008443A0008943A00CD
:103BC00008FC00330102030401020304060708098C
:103BD0000204060800A24A0402040101A00D00200C
:103BE000F00D0020A00D0020A00D0020A00D002051
:103BF000750000205C000020C400F8FFDC00FAFF24
:023C0000C600FC
:0400000508003AB9FC
:00000001FF
